{
  "contractName": "MyToken",
  "abi": [
    {
      "inputs": [],
      "stateMutability": "nonpayable",
      "type": "constructor"
    },
    {
      "anonymous": false,
      "inputs": [
        {
          "indexed": true,
          "internalType": "address",
          "name": "_owner",
          "type": "address"
        },
        {
          "indexed": true,
          "internalType": "address",
          "name": "_spender",
          "type": "address"
        },
        {
          "indexed": false,
          "internalType": "uint256",
          "name": "_value",
          "type": "uint256"
        }
      ],
      "name": "Approval",
      "type": "event"
    },
    {
      "anonymous": false,
      "inputs": [
        {
          "indexed": true,
          "internalType": "address",
          "name": "_from",
          "type": "address"
        },
        {
          "indexed": true,
          "internalType": "address",
          "name": "_to",
          "type": "address"
        },
        {
          "indexed": false,
          "internalType": "uint256",
          "name": "_value",
          "type": "uint256"
        }
      ],
      "name": "Transfer",
      "type": "event"
    },
    {
      "inputs": [],
      "name": "name",
      "outputs": [
        {
          "internalType": "string",
          "name": "",
          "type": "string"
        }
      ],
      "stateMutability": "view",
      "type": "function",
      "constant": true
    },
    {
      "inputs": [],
      "name": "symbol",
      "outputs": [
        {
          "internalType": "string",
          "name": "",
          "type": "string"
        }
      ],
      "stateMutability": "view",
      "type": "function",
      "constant": true
    },
    {
      "inputs": [],
      "name": "totalSupply",
      "outputs": [
        {
          "internalType": "uint256",
          "name": "",
          "type": "uint256"
        }
      ],
      "stateMutability": "view",
      "type": "function",
      "constant": true
    },
    {
      "inputs": [
        {
          "internalType": "address",
          "name": "_to",
          "type": "address"
        },
        {
          "internalType": "uint256",
          "name": "_amount",
          "type": "uint256"
        }
      ],
      "name": "transferToken",
      "outputs": [
        {
          "internalType": "bool",
          "name": "success",
          "type": "bool"
        }
      ],
      "stateMutability": "nonpayable",
      "type": "function"
    },
    {
      "inputs": [
        {
          "internalType": "address",
          "name": "_spender",
          "type": "address"
        },
        {
          "internalType": "uint256",
          "name": "_value",
          "type": "uint256"
        }
      ],
      "name": "approve",
      "outputs": [
        {
          "internalType": "bool",
          "name": "success",
          "type": "bool"
        }
      ],
      "stateMutability": "nonpayable",
      "type": "function"
    },
    {
      "inputs": [
        {
          "internalType": "address",
          "name": "_from",
          "type": "address"
        },
        {
          "internalType": "address",
          "name": "_to",
          "type": "address"
        },
        {
          "internalType": "uint256",
          "name": "_amount",
          "type": "uint256"
        }
      ],
      "name": "tranferFrom",
      "outputs": [
        {
          "internalType": "bool",
          "name": "success",
          "type": "bool"
        }
      ],
      "stateMutability": "nonpayable",
      "type": "function"
    },
    {
      "inputs": [
        {
          "internalType": "address",
          "name": "_owner",
          "type": "address"
        }
      ],
      "name": "balanceOf",
      "outputs": [
        {
          "internalType": "uint256",
          "name": "balance",
          "type": "uint256"
        }
      ],
      "stateMutability": "view",
      "type": "function",
      "constant": true
    }
  ],
  "bytecode": "0x60806040526040518060400160405280600d81526020017f5475746f7269616c546f6b656e00000000000000000000000000000000000000815250600090805190602001906200005192919062000139565b506040518060400160405280600281526020017f5454000000000000000000000000000000000000000000000000000000000000815250600190805190602001906200009f92919062000139565b50348015620000ad57600080fd5b506012600a620000be919062000376565b6064620000cc9190620003c7565b6002819055506012600a620000e2919062000376565b6064620000f09190620003c7565b600360003373ffffffffffffffffffffffffffffffffffffffff1673ffffffffffffffffffffffffffffffffffffffff168152602001908152602001600020819055506200048c565b828054620001479062000457565b90600052602060002090601f0160209004810192826200016b5760008555620001b7565b82601f106200018657805160ff1916838001178555620001b7565b82800160010185558215620001b7579182015b82811115620001b657825182559160200191906001019062000199565b5b509050620001c69190620001ca565b5090565b5b80821115620001e5576000816000905550600101620001cb565b5090565b7f4e487b7100000000000000000000000000000000000000000000000000000000600052601160045260246000fd5b60008160011c9050919050565b6000808291508390505b600185111562000277578086048111156200024f576200024e620001e9565b5b60018516156200025f5780820291505b80810290506200026f8562000218565b94506200022f565b94509492505050565b60008262000292576001905062000365565b81620002a2576000905062000365565b8160018114620002bb5760028114620002c657620002fc565b600191505062000365565b60ff841115620002db57620002da620001e9565b5b8360020a915084821115620002f557620002f4620001e9565b5b5062000365565b5060208310610133831016604e8410600b8410161715620003365782820a90508381111562000330576200032f620001e9565b5b62000365565b62000345848484600162000225565b925090508184048111156200035f576200035e620001e9565b5b81810290505b9392505050565b6000819050919050565b600062000383826200036c565b915062000390836200036c565b9250620003bf7fffffffffffffffffffffffffffffffffffffffffffffffffffffffffffffffff848462000280565b905092915050565b6000620003d4826200036c565b9150620003e1836200036c565b9250817fffffffffffffffffffffffffffffffffffffffffffffffffffffffffffffffff04831182151516156200041d576200041c620001e9565b5b828202905092915050565b7f4e487b7100000000000000000000000000000000000000000000000000000000600052602260045260246000fd5b600060028204905060018216806200047057607f821691505b60208210810362000486576200048562000428565b5b50919050565b610c4c806200049c6000396000f3fe608060405234801561001057600080fd5b506004361061007d5760003560e01c806318160ddd1161005b57806318160ddd1461010057806370a082311461011e5780639264a1691461014e57806395d89b411461017e5761007d565b806306fdde0314610082578063095ea7b3146100a05780631072cbea146100d0575b600080fd5b61008a61019c565b6040516100979190610922565b60405180910390f35b6100ba60048036038101906100b591906109dd565b61022a565b6040516100c79190610a38565b60405180910390f35b6100ea60048036038101906100e591906109dd565b610354565b6040516100f79190610a38565b60405180910390f35b6101086103b7565b6040516101159190610a62565b60405180910390f35b61013860048036038101906101339190610a7d565b6103bd565b6040516101459190610a62565b60405180910390f35b61016860048036038101906101639190610aaa565b610406565b6040516101759190610a38565b60405180910390f35b610186610602565b6040516101939190610922565b60405180910390f35b600080546101a990610b2c565b80601f01602080910402602001604051908101604052809291908181526020018280546101d590610b2c565b80156102225780601f106101f757610100808354040283529160200191610222565b820191906000526020600020905b81548152906001019060200180831161020557829003601f168201915b505050505081565b60008073ffffffffffffffffffffffffffffffffffffffff168373ffffffffffffffffffffffffffffffffffffffff160361026457600080fd5b81600460003373ffffffffffffffffffffffffffffffffffffffff1673ffffffffffffffffffffffffffffffffffffffff16815260200190815260200160002060008573ffffffffffffffffffffffffffffffffffffffff1673ffffffffffffffffffffffffffffffffffffffff168152602001908152602001600020819055508273ffffffffffffffffffffffffffffffffffffffff163373ffffffffffffffffffffffffffffffffffffffff167f8c5be1e5ebec7d5bd14f71427d1e84f3dd0314c0f7b2291e5b200ac8c7c3b925846040516103429190610a62565b60405180910390a36001905092915050565b600081600360003373ffffffffffffffffffffffffffffffffffffffff1673ffffffffffffffffffffffffffffffffffffffff1681526020019081526020016000205410156103a257600080fd5b6103ad338484610690565b6001905092915050565b60025481565b6000600360008373ffffffffffffffffffffffffffffffffffffffff1673ffffffffffffffffffffffffffffffffffffffff168152602001908152602001600020549050919050565b6000600360008573ffffffffffffffffffffffffffffffffffffffff1673ffffffffffffffffffffffffffffffffffffffff1681526020019081526020016000205482111561045457600080fd5b600460008573ffffffffffffffffffffffffffffffffffffffff1673ffffffffffffffffffffffffffffffffffffffff16815260200190815260200160002060003373ffffffffffffffffffffffffffffffffffffffff1673ffffffffffffffffffffffffffffffffffffffff168152602001908152602001600020548211156104dd57600080fd5b61056c82600460008773ffffffffffffffffffffffffffffffffffffffff1673ffffffffffffffffffffffffffffffffffffffff16815260200190815260200160002060003373ffffffffffffffffffffffffffffffffffffffff1673ffffffffffffffffffffffffffffffffffffffff1681526020019081526020016000205461085d90919063ffffffff16565b600460008673ffffffffffffffffffffffffffffffffffffffff1673ffffffffffffffffffffffffffffffffffffffff16815260200190815260200160002060003373ffffffffffffffffffffffffffffffffffffffff1673ffffffffffffffffffffffffffffffffffffffff168152602001908152602001600020819055506105f7848484610690565b600190509392505050565b6001805461060f90610b2c565b80601f016020809104026020016040519081016040528092919081815260200182805461063b90610b2c565b80156106885780601f1061065d57610100808354040283529160200191610688565b820191906000526020600020905b81548152906001019060200180831161066b57829003601f168201915b505050505081565b600073ffffffffffffffffffffffffffffffffffffffff168273ffffffffffffffffffffffffffffffffffffffff16036106c957600080fd5b61071b81600360008673ffffffffffffffffffffffffffffffffffffffff1673ffffffffffffffffffffffffffffffffffffffff1681526020019081526020016000205461085d90919063ffffffff16565b600360008573ffffffffffffffffffffffffffffffffffffffff1673ffffffffffffffffffffffffffffffffffffffff168152602001908152602001600020819055506107b081600360008573ffffffffffffffffffffffffffffffffffffffff1673ffffffffffffffffffffffffffffffffffffffff1681526020019081526020016000205461087390919063ffffffff16565b600360008473ffffffffffffffffffffffffffffffffffffffff1673ffffffffffffffffffffffffffffffffffffffff168152602001908152602001600020819055508173ffffffffffffffffffffffffffffffffffffffff163373ffffffffffffffffffffffffffffffffffffffff167fddf252ad1be2c89b69c2b068fc378daa952ba7f163c4a11628f55a4df523b3ef836040516108509190610a62565b60405180910390a3505050565b6000818361086b9190610b8c565b905092915050565b600081836108819190610bc0565b905092915050565b600081519050919050565b600082825260208201905092915050565b60005b838110156108c35780820151818401526020810190506108a8565b838111156108d2576000848401525b50505050565b6000601f19601f8301169050919050565b60006108f482610889565b6108fe8185610894565b935061090e8185602086016108a5565b610917816108d8565b840191505092915050565b6000602082019050818103600083015261093c81846108e9565b905092915050565b600080fd5b600073ffffffffffffffffffffffffffffffffffffffff82169050919050565b600061097482610949565b9050919050565b61098481610969565b811461098f57600080fd5b50565b6000813590506109a18161097b565b92915050565b6000819050919050565b6109ba816109a7565b81146109c557600080fd5b50565b6000813590506109d7816109b1565b92915050565b600080604083850312156109f4576109f3610944565b5b6000610a0285828601610992565b9250506020610a13858286016109c8565b9150509250929050565b60008115159050919050565b610a3281610a1d565b82525050565b6000602082019050610a4d6000830184610a29565b92915050565b610a5c816109a7565b82525050565b6000602082019050610a776000830184610a53565b92915050565b600060208284031215610a9357610a92610944565b5b6000610aa184828501610992565b91505092915050565b600080600060608486031215610ac357610ac2610944565b5b6000610ad186828701610992565b9350506020610ae286828701610992565b9250506040610af3868287016109c8565b9150509250925092565b7f4e487b7100000000000000000000000000000000000000000000000000000000600052602260045260246000fd5b60006002820490506001821680610b4457607f821691505b602082108103610b5757610b56610afd565b5b50919050565b7f4e487b7100000000000000000000000000000000000000000000000000000000600052601160045260246000fd5b6000610b97826109a7565b9150610ba2836109a7565b925082821015610bb557610bb4610b5d565b5b828203905092915050565b6000610bcb826109a7565b9150610bd6836109a7565b9250827fffffffffffffffffffffffffffffffffffffffffffffffffffffffffffffffff03821115610c0b57610c0a610b5d565b5b82820190509291505056fea264697066735822122092aad0bdcd178ecb641d87c8f2690a597c3b91542e18751595d8d1baa0f7dc3b64736f6c634300080d0033",
  "immutableReferences": {},
  "source": "// SPDX-License-Identifier: MIT\npragma solidity >=0.4.22 <0.9.0;\n\nimport \"@openzeppelin/contracts/utils/math/SafeMath.sol\";\n\ncontract MyToken {\n    using SafeMath for uint256;\n    string public name = \"TutorialToken\";\n    string public symbol = \"TT\";\n    uint256 constant decimals = 18;\n    uint256 constant INITIAL_SUPPLY = 100 * (10 ** decimals); // equal 10 ^ 18\n    uint256 public totalSupply;\n    // Solidityevent\n    event Transfer(address indexed _from, address indexed _to, uint256 _value);\n    event Approval(\n        address indexed _owner,\n        address indexed _spender,\n        uint256 _value\n    );\n\n    // Track balances\n    // balanceskeyaddress\n    mapping(address => uint256) balances;\n    mapping(address => mapping(address => uint256)) allowance;\n\n    constructor() {\n        totalSupply = INITIAL_SUPPLY;\n        //Solidity\n        // msg.sender (address):  ()\n        // tx.origin (address): ()\n        balances[msg.sender] = INITIAL_SUPPLY;\n    }\n\n    // send token\n    function _transfer(\n        address _from,\n        address _to,\n        uint256 _amount\n    ) internal {\n        // \n        // if (balances[msg.sender] < _amount) return false;\n\n        // require, require\n        require(_to != address(0));\n        // \n        balances[_from] = balances[_from].sub(_amount);\n        // \n        balances[_to] = balances[_to].add(_amount);\n        // event\n        emit Transfer(msg.sender, _to, _amount);\n    }\n\n    // \n    function transferToken(address _to, uint256 _amount)\n        public\n        returns (bool success)\n    {\n        require(balances[msg.sender] >= _amount);\n        _transfer(msg.sender, _to, _amount);\n        return true;\n    }\n\n    function approve(address _spender, uint256 _value)\n        public\n        returns (bool success)\n    {\n        require(_spender != address(0));\n        allowance[msg.sender][_spender] = _value;\n        emit Approval(msg.sender, _spender, _value);\n        return true;\n    }\n\n    function tranferFrom(\n        address _from,\n        address _to,\n        uint256 _amount\n    ) public returns (bool success) {\n        require(_amount <= balances[_from]);\n        require(_amount <= allowance[_from][msg.sender]);\n        allowance[_from][msg.sender] = allowance[_from][msg.sender].sub(\n            _amount\n        );\n        _transfer(_from, _to, _amount);\n        return true;\n    }\n\n    function balanceOf(address _owner) public view returns (uint256 balance) {\n        return balances[_owner];\n    }\n}\n\n// contract MyToken {\n//   uint256 INITIAL_SUPPLY = 100;\n//   mapping(address => uint256) balances;\n\n//   event Transfer(address indexed _from, address indexed _to, uint256 _value);\n\n//   function MyToken() public {\n//     balances[tx.origin] = INITIAL_SUPPLY;\n//   }\n//   function sendToken(address _to, uint256 _amount) public returns (bool success) {\n//     if (balances[msg.sender] < _amount) return false;\n//     balances[msg.sender] -= _amount;\n//     balances[_to] += _amount;\n//     Transfer(msg.sender, _to, _amount);\n//     return true;\n//   }\n//   function balanceOf(address _owner) public returns (uint256 balance) {\n//     return balances[_owner];\n//   }\n// }\n",
  "sourcePath": "/Users/shenzhonghui/myopen/blockchain/bootcamp_example/contracts/MyToken.sol",
  "compiler": {
    "name": "solc",
    "version": "0.8.13+commit.abaa5c0e.Emscripten.clang"
  },
  "schemaVersion": "3.4.7",
  "updatedAt": "2022-05-13T02:28:44.362Z",
  "networkType": "ethereum",
  "devdoc": {
    "kind": "dev",
    "methods": {},
    "version": 1
  },
  "userdoc": {
    "kind": "user",
    "methods": {},
    "version": 1
  }
}